:100000000C9445010C946D010C946D010C946D01E0
:100010000C946D010C946D010C946D010C946D01A8
:100020000C946D010C946D010C946D010C946D0198
:100030000C946D010C946D010C946D010C946D0188
:100040000C94C6060C946D010C9496080C94E4086C
:100050000C946D010C946D010C946D010C946D0168
:100060000C946D010C946D01000000002400270029
:100070002A0000000000250028002B0000000000DE
:1000800023002600290004040404040404040202DA
:100090000202020203030303030301020408102007
:1000A0004080010204081020010204081020000012
:1000B0000007000201000003040600000000000029
:1000C00000000A0B0C0D0E0F11121314151600016F
:1000D0000203040529022F0235023D0246025002A6
:1000E0005902600268026F0276027D025041205080
:1000F0006F77657209203D2025530D0A0043524356
:10010000204C656E67746809203D2025530D0A0058
:100110004D6F64656C0909203D2025530D0A00448C
:10012000617461205261746509203D2025530D0AD8
:100130000044594E50442F464541545552450043C2
:100140004F4E4649470052465F5345545550005262
:10015000465F434800454E5F525841444452004573
:100160004E5F41410052585F50575F50302D36006E
:1001700054585F414444520052585F414444525FD6
:1001800050322D350052585F414444525F50302D5B
:1001900031000D0A002530327800203078002553D8
:1001A000092563203D000D0A002030782530327883
:1001B000002553092563203D004F425345525645C3
:1001C0005F54583D253032783A20504F4C535F43AE
:1001D0004E543D2578204152435F434E543D25788F
:1001E0000D0A005354415455530909203D203078DD
:1001F000253032782052585F44523D25782054589B
:100200005F44533D2578204D41585F52543D257839
:100210002052585F505F4E4F3D25782054585F461E
:10022000554C4C3D25780D0A00314D42505300325B
:100230004D425053003235304B425053006E5246BF
:1002400032344C3031006E524632344C30312B0057
:1002500044697361626C656400382062697473007C
:10026000313620626974730050415F4D494E005031
:10027000415F4C4F57004C415F4D45440050415F3A
:10028000484947480000A204500A11241FBECFEF7E
:10029000D8E0DEBFCDBF11E0A0E0B1E0E0EFF8E2D2
:1002A00002C005900D92A033B107D9F712E0A0E388
:1002B000B1E001C01D92A930B107E1F712E0CAE830
:1002C000D2E004C02297FE010E947214C638D10702
:1002D000C9F70E94A8060C946F010C940000F894D2
:1002E0000C947614FC0105900020E9F78095909518
:1002F0008E0F9F1F08950F931F93CF93DF938C0151
:10030000EB01009731F46115710519F420E030E03C
:1003100038C081E090E06EE070E00E94DF03FC01F5
:100320009C01009771F180E88383209771F0D38757
:10033000C28781E883838091030290910402892B14
:1003400021F4F0930402E093030201151105C9F0B2
:100350001187008783818260838380910502909159
:100360000602892B71F4F0930602E0930502809156
:10037000070290910802892B21F4F0930802E09380
:100380000702C901DF91CF911F910F910895A0E05D
:10039000B0E0EDECF1E00C944914FE01359661916A
:1003A00071918091050290910602AF010E940202B4
:1003B0002096E2E00C946514A0E0B0E0E2EEF1E0FB
:1003C0000C944914FE01359661917191A09105023A
:1003D000B091060213968C911397886013968C93B4
:1003E0008091050290910602AF010E940202E09105
:1003F0000502F09106022381277F23832096E2E005
:100400000C946514ABE0B0E0E8E0F2E00C94391431
:100410003C012B015A01FC0117821682838181FD68
:1004200003C06FEF7FEFC6C19AE0892E1E010894CA
:10043000211C311CF3012381F20123FD859123FF4F
:1004400081912F01882309F4B2C1853239F423FD4B
:10045000859123FF81912F01853229F490E0B3012A
:100460000E941804E7CF982FFF24EE249924FFE17F
:10047000FF15D0F09B3269F09C3228F4903259F08D
:10048000933291F40EC09D3249F0903369F441E00B
:1004900024C052E0F52A84E0F82A28C098E0F92A1E
:1004A00025C0E0E1FE2A22C0F7FC29C0892F805335
:1004B0008A3070F4F6FE05C0989C902C1124980E9A
:1004C00015C0E89CE02C1124E80EF0E2FF2A0EC0D3
:1004D0009E3229F4F6FC6BC140E4F42A07C09C3636
:1004E00019F450E8F52A02C0983649F4F20123FDC8
:1004F000959123FF91912F01992309F0B8CF892F6E
:100500008554833018F08052833038F444E050E052
:10051000A40EB51E5FE359830FC0933631F09337B5
:1005200079F0933509F056C020C0F50180818983A8
:1005300042E050E0A40EB51E610101E010E012C0DF
:10054000F501C080D180F6FC03C06FEF7FEF02C0E1
:10055000692D70E042E050E0A40EB51EC6010E9475
:100560000D048C015FE7F52214C0F501C080D18035
:10057000F6FC03C06FEF7FEF02C0692D70E042E030
:1005800050E0A40EB51EC6010E94FB038C0150E88A
:10059000F52AF3FE07C01AC080E290E0B3010E9482
:1005A0001804EA948E2D90E008171907A8F30EC0DE
:1005B000F601F7FC8591F7FE81916F0190E0B301A0
:1005C0000E941804E110EA94015010400115110531
:1005D00079F7EAC0943611F0993669F5F7FE08C04C
:1005E000F501208131814281538184E090E00AC08D
:1005F000F501808191819C01442737FD4095542F5E
:1006000082E090E0A80EB91E9FE6F92257FF09C0CC
:1006100050954095309521953F4F4F4F5F4FE0E803
:10062000FE2ACA01B901A1012AE030E00E94440477
:10063000D82ED21840C0953729F41F2D1F7E2AE0EE
:1006400030E01DC01F2D197F9F3661F0903720F4D8
:10065000983509F0ACC00FC0903739F0983709F0E1
:10066000A6C004C028E030E00AC0106114FD146088
:1006700020E130E004C014FD166020E132E017FFF5
:1006800008C0F501608171818281938144E050E06E
:1006900008C0F50180819181BC0180E090E042E0DA
:1006A00050E0A40EB51EA1010E944404D82ED21819
:1006B0008FE7F82EF122F6FE0BC05EEFF522D9147B
:1006C00038F4F4FE07C0F2FC05C08FEEF82202C039
:1006D0001D2D01C0192DF4FE0DC0FE01ED0DF11D03
:1006E0008081803319F499EEF92208C01F5FF2FE71
:1006F00005C003C08F2D867809F01F5F0F2DF3FC16
:1007000014C0F0FE0FC01E1510F09D2C0BC09D2CC8
:100710009E0C911A1E2D06C080E290E0B3010E944B
:1007200018041F5F1E15C0F304C01E1510F4E11A53
:1007300001C0EE2404FF0FC080E390E0B3010E94EB
:10074000180402FF1DC001FD03C088E790E00EC041
:1007500088E590E00BC0802F867891F001FF02C001
:100760008BE201C080E2F7FC8DE290E0B3010E94D1
:10077000180406C080E390E0B3010E9418049A9424
:10078000D914C0F3DA94F101ED0DF11D808190E0F0
:10079000B3010E941804DD20A9F706C080E290E0B2
:1007A000B3010E941804EA94EE20C1F743CEF3018E
:1007B00066817781CB012B96E2E10C9455140F935F
:1007C0001F93CF93DF93689F8001699F100D789FDF
:1007D000100D1124C8010E94B411EC01009729F0FA
:1007E00060E070E0A8010E940604CE01DF91CF9185
:1007F0001F910F910895FC01059061507040011008
:10080000D8F7809590958E0F9F1F0895DC0101C049
:100810006D9341505040E0F70895FC0161507040E5
:1008200001900110D8F7809590958E0F9F1F089525
:100830000F931F93CF93DF938C01EB018B8181FF8B
:100840001BC082FF0DC02E813F818C819D812817A6
:10085000390764F4E881F9810193F983E88306C0DC
:10086000E885F985802F0995892B31F48E819F8148
:1008700001969F838E8302C00FEF1FEFC801DF91A7
:10088000CF911F910F910895FA01AA27283051F1B5
:10089000203181F1E8946F936E7F6E5F7F4F8F4FB1
:1008A0009F4FAF4FB1E03ED0B4E03CD0670F781F10
:1008B000891F9A1FA11D680F791F8A1F911DA11DF5
:1008C0006A0F711D811D911DA11D20D009F468942E
:1008D0003F912AE0269F11243019305D3193DEF6D6
:1008E000CF010895462F4770405D4193B3E00FD08C
:1008F000C9F7F6CF462F4F70405D4A3318F0495D77
:1009000031FD4052419302D0A9F7EACFB4E0A69559
:100910009795879577956795BA95C9F7009761057B
:10092000710508959B01AC010A2E069457954795D1
:1009300037952795BA95C9F7620F731F841F951FC6
:10094000A01D089580E391E063E049E00E94D00A91
:1009500008950F931F93DF93CF9300D000D000D062
:10096000CDB7DEB720914C0130914D013A832983F8
:1009700020911701309118013C832B8320E432E44D
:100980004FE050E00E941714CA01B90127E531E099
:1009900040E050E00E94F8137E836D8300E311E095
:1009A000C8010E94B00BC801BE016F5F7F4F46E0D7
:1009B0000E940210C8010E94E60E26960FB6F89417
:1009C000DEBF0FBECDBFCF91DF911F910F91089574
:1009D000EF92FF920F931F93CF93DF930E941C0718
:1009E0007B018C01809119010E94E007EC0180914C
:1009F0004001909141019E01281B390BC901449689
:100A0000899708F483C08091420190914301029735
:100A100009F06EC0209148013091490140914A018E
:100A200050914B01D801C701821B930BA40BB50B4E
:100A3000893A61E6960760E0A60760E0B60708F429
:100A400057C08055934CA040B04008F051C08091F1
:100A5000440190914501A0914601B0914701281BA6
:100A6000390B4A0B5B0BCA01B9010E94A90400D0E3
:100A700000D000D080E091E0EDB7FEB79283818393
:100A80008091480190914901A0914A01B0914B0198
:100A90002091440130914501409146015091470118
:100AA000821B930BA40BB50B83839483A583B6831E
:100AB0000E94C7012DB73EB72A5F3F4F0FB6F8948B
:100AC0003EBF0FBE2DBF8091150161E00E9441081D
:100AD0006EE170E080E090E00E9442078091150195
:100AE00060E00E94410810924301109242010EC042
:100AF000E0924801F092490100934A0110934B01A2
:100B000082E090E090934301809342016091400124
:100B100070914101882777FD8095982F0E940913D5
:100B200023E333E343E75FE30E9495137B018C01EA
:100B3000BE01882777FD8095982F0E9409132DEC20
:100B40003CEC4CE45DE30E9495139B01AC01C801B1
:100B5000B7010E9472120E94D612709341016093F5
:100B6000400184E690E00E949B07DF91CF911F91A6
:100B70000F91FF90EF900895EF92FF920F931F93C4
:100B8000DF93CF9300D000D000D0CDB7DEB78091F7
:100B9000420190914301892B39F50E941C077B018A
:100BA0008C0180E391E00E94DD0C882309F180E351
:100BB00091E0BE016F5F7F4F46E00E949B0E8981EE
:100BC0009A8190934D0180934C01E0924401F09200
:100BD0004501009346011093470181E090E0909316
:100BE00043018093420104C00E94E8040E941C0754
:100BF00026960FB6F894DEBF0FBECDBFCF91DF9122
:100C00001F910F91FF90EF90089587EB96E060E0C1
:100C100070E00E947B010895AF92BF92CF92DF9265
:100C2000EF92FF920F931F93CF93DF938FED91E09D
:100C300040E05BE460E070E00E941F0980911501D4
:100C400061E00E94020880E391E00E94860F80E349
:100C500091E06BE60E94E20C80E391E063E070E0DB
:100C60000E94F60D80E391E065E040E00E946F0C89
:100C700080E391E068E00E94E30A80E391E00AEB00
:100C80001CED24E536E74EEF50E060E070E00E9496
:100C9000170D80E391E061E03FEEE32E27E6F22EB0
:100CA00005E41DEC2BEA30E040E050E00E941C0E11
:100CB00080E391E00E94E60EC0E0D0E0809119014F
:100CC0000E94E0077C0160914001709141018827FA
:100CD00077FD8095982F0E94091323E333E343E7C0
:100CE0005FE30E9495135B016C010027F7FC009500
:100CF000102FC801B7010E9409132DEC3CEC4CE405
:100D00005DE30E9495139B01AC01C601B5010E94F1
:100D100072120E94D612709341016093400184E6E2
:100D200090E00E949B072196C436D10539F60E94B7
:100D3000050680E391E00E940011DF91CF911F91A1
:100D40000F91FF90EF90DF90CF90BF90AF900895FC
:100D5000CF93DF930E94A5070E940C06C1EDD8E057
:100D60000E94BC052097E1F30E94D108F9CF0F93B0
:100D70001F93082F112707FD10958FED91E0602F2D
:100D80000E94100AC8011F910F9108951F920F929F
:100D90000FB60F9211242F933F938F939F93AF938E
:100DA000BF938091520190915301A0915401B09151
:100DB0005501309156010196A11DB11D232F2D5FC4
:100DC0002D3720F02D570196A11DB11D20935601FE
:100DD0008093520190935301A0935401B093550115
:100DE00080914E0190914F01A0915001B09151011D
:100DF0000196A11DB11D80934E0190934F01A093C8
:100E00005001B0935101BF91AF919F918F913F914C
:100E10002F910F900FBE0F901F9018958FB7F894D9
:100E2000209152013091530140915401509155014C
:100E30008FBFB901CA0108959FB7F89420914E0160
:100E400030914F01409150015091510186B5A89BBE
:100E500006C08F3F21F02F5F3F4F4F4F5F4F9FBF27
:100E6000542F432F322F2227280F311D411D511D92
:100E700082E0220F331F441F551F8A95D1F7B90115
:100E8000CA0108959B01AC017FB7F89480914E018F
:100E900090914F01A0915001B091510166B5A89B6E
:100EA00005C06F3F19F00196A11DB11D7FBFBA2F7C
:100EB000A92F982F8827860F911DA11DB11D62E0D3
:100EC000880F991FAA1FBB1F6A95D1F7BC012DC0BF
:100ED000FFB7F89480914E0190914F01A09150017D
:100EE000B0915101E6B5A89B05C0EF3F19F00196FE
:100EF000A11DB11DFFBFBA2FA92F982F88278E0FD4
:100F0000911DA11DB11DE2E0880F991FAA1FBB1FF3
:100F1000EA95D1F7861B970B885E9340C8F2215063
:100F200030404040504068517C4F2115310541050B
:100F3000510571F60895019739F0880F991F880FB0
:100F4000991F02970197F1F70895789484B582600C
:100F500084BD84B5816084BD85B5826085BD85B55D
:100F6000816085BDEEE6F0E0808181608083E1E80C
:100F7000F0E0108280818260808380818160808344
:100F8000E0E8F0E0808181608083E1EBF0E0808147
:100F900084608083E0EBF0E0808181608083EAE719
:100FA000F0E08081846080838081826080838081A2
:100FB000816080838081806880831092C100089561
:100FC000982F8E3008F09E50977080911B0182956B
:100FD000880F880F807C892B80937C0080917A0019
:100FE000806480937A0080917A0086FDFCCF209106
:100FF000780040917900942F80E030E0282B392B45
:10100000C9010895CF93DF93482F50E0CA01865657
:101010009F4FFC0134914A575F4FFA018491882316
:1010200069F190E0880F991FFC01E859FF4FA591E5
:10103000B491FC01EE58FF4FC591D491662351F451
:101040002FB7F8948C91932F909589238C93888156
:1010500089230BC0623061F42FB7F8948C91932FE1
:10106000909589238C938881832B88832FBF06C01A
:101070009FB7F8948C91832B8C939FBFDF91CF9176
:101080000895482F50E0CA0182559F4FFC012491DA
:10109000CA0186569F4FFC0194914A575F4FFA014F
:1010A0003491332309F440C0222351F1233071F0ED
:1010B000243028F42130A1F0223011F514C026305C
:1010C000B1F02730C1F02430D9F404C08091800001
:1010D0008F7703C0809180008F7D8093800010C047
:1010E00084B58F7702C084B58F7D84BD09C080919F
:1010F000B0008F7703C08091B0008F7D8093B000E7
:10110000E32FF0E0EE0FFF1FEE58FF4FA591B491D3
:101110002FB7F894662321F48C919095892302C00F
:101120008C91892B8C932FBF089508951F920F9255
:101130000FB60F9211242F933F934F938F939F934A
:10114000EF93FF938091C00082FD1DC04091C600C7
:1011500020919701309198012F5F3F4F2F7330708E
:101160008091990190919A012817390771F0E091C7
:101170009701F0919801E95AFE4F4083309398010E
:101180002093970102C08091C600FF91EF919F913B
:101190008F914F913F912F910F900FBE0F901F9005
:1011A0001895E091EB01F091EC01E05CFF4F81912B
:1011B000919120813181821B930B8F739070892BC9
:1011C00011F00E94950808951F920F920FB60F928A
:1011D00011242F933F938F939F93EF93FF9320912D
:1011E000DB013091DC018091DD019091DE01281757
:1011F000390731F48091C1008F7D8093C10014C004
:10120000E091DD01F091DE01E556FE4F20818091F5
:10121000DD019091DE0101968F7390709093DE0155
:101220008093DD012093C600FF91EF919F918F91F4
:101230003F912F910F900FBE0F901F901895AF9276
:10124000BF92DF92EF92FF920F931F93CF93DF93A2
:10125000EC017A018B01DD24403081EE580780E0FB
:10126000680780E0780711F0DD24D39491E0A92E7F
:10127000B12CEC89FD89DD2069F0C50108A002C010
:10128000880F991F0A94E2F7808360E079E08DE38C
:1012900090E005C0108260E874E88EE190E0A8015B
:1012A00097010E94171421503040404050405695FD
:1012B00047953795279580E12030380720F0DD20CD
:1012C00011F0DD24D6CFE889F9893083EA89FB89DA
:1012D000208319A2EE89FF89408121E030E0C90115
:1012E0000C8C02C0880F991F0A94E2F7482B4083A8
:1012F000EE89FF894081C9010D8C02C0880F991FBA
:101300000A94E2F7482B4083EE89FF894081C901A6
:101310000E8C02C0880F991F0A94E2F7482B408375
:10132000EE89FF8980810F8C02C0220F331F0A943F
:10133000E2F7209528232083DF91CF911F910F9111
:10134000FF90EF90DF90BF90AF900895DC011C9666
:10135000ED91FC911D97E05CFF4F219131918081CF
:101360009181281B390B2F733070C9010895DC015E
:101370001C96ED91FC911D97E05CFF4F208131811F
:10138000E054F040DF01AE5BBF4F8D919C9111970F
:101390002817390719F42FEF3FEF07C08D919C9163
:1013A000E80FF91F8081282F30E0C9010895DC0182
:1013B0001C96ED91FC911D97E05CFF4F20813181DF
:1013C000E054F040DF01AE5BBF4F8D919C911197CF
:1013D0002817390719F42FEF3FEF10C08D919C911A
:1013E0001197E80FF91F20818D919C91119701961B
:1013F0008F73907011969C938E9330E0C90108957D
:10140000DC0191968C919197882339F05496ED9157
:10141000FC915597808186FFF9CF91961C92089593
:10142000CF93DF93EC01EE85FF85E05CFF4F2081D9
:101430003181E054F0402F5F3F4F2F733070DF0158
:10144000AE5BBF4F8D919C91119728173907D1F34F
:10145000E05CFF4F80819181E054F040E80FF91F7C
:101460006083EE85FF85E05CFF4F31832083EE894A
:10147000FF89208181E090E00F8C02C0880F991FC6
:101480000A94E2F7282B208381E089A3EC89FD8967
:1014900080818064808381E090E0DF91CF91089526
:1014A0001092E2011092E10188EE93E0A0E0B0E03A
:1014B0008093E3019093E401A093E501B093E601EA
:1014C00084E291E09093E0018093DF0187E591E071
:1014D0009093EC018093EB018BE991E09093EE0106
:1014E0008093ED0185EC90E09093F0018093EF0103
:1014F00084EC90E09093F2018093F10180EC90E015
:101500009093F4018093F30181EC90E09093F601C5
:101510008093F50182EC90E09093F8018093F701BD
:1015200086EC90E09093FA018093F90184E0809337
:10153000FB0183E08093FC0187E08093FD0185E05F
:101540008093FE0181E08093FF010895CF92DF92A6
:10155000EF92FF920F931F93CF93DF937C016B0168
:101560008A01C0E0D0E00FC0D6016D916D01D701B6
:10157000ED91FC910190F081E02DC7010995C80F14
:10158000D91F015010400115110571F7CE01DF91EF
:10159000CF911F910F91FF90EF90DF90CF90089522
:1015A000FC016083418381E08283138280E2848333
:1015B0001582168210861186128613861486158669
:1015C000168617860895FC01613208F060E2648394
:1015D000089570E08DB79EB70E970FB6F8949EBF32
:1015E0000FBE8DBFEDB7FEB7319683EE91E0ADB77C
:1015F000BEB712969C938E93119773836283CB012F
:1016000056E0969587955A95E1F78170907095838D
:101610008483CB0145E0969587954A95E1F78170E3
:10162000907097838683CB0134E0969587953A95A1
:10163000E1F78170907091878087CB0195958795B0
:1016400087709070938782876170707075876487E8
:101650000E94DC018DB79EB70E960FB6F8949EBF20
:101660000FBE8DBF0895FF920F931F938C01F62E2E
:1016700081E00E943B1280E00E94441280E00E94C0
:101680004912F80181816F2D0E9441081F910F912D
:10169000FF9008951F93CF93DF93EC0160E070E01B
:1016A0000E94330B80E68EBD0DB407FEFDCF8EB5D4
:1016B0008FEF8EBD0DB407FEFDCF1EB5CE0161E0EC
:1016C00070E00E94330B812FDF91CF911F9108951D
:1016D0001F93CF93DF93EC0160E070E00E94330B27
:1016E0008FEF8EBD0DB407FEFDCF1EB5CE0161E0BC
:1016F00070E00E94330B812FDF91CF911F910895ED
:101700001F93CF93DF93EC0160E070E00E94330BF6
:1017100081EE8EBD0DB407FEFDCF1EB5CE0161E09A
:1017200070E00E94330B812FDF91CF911F910895BC
:101730001F93CF93DF93EC0160E070E00E94330BC6
:1017400082EE8EBD0DB407FEFDCF1EB5CE0161E069
:1017500070E00E94330B812FDF91CF911F9108958C
:101760000F931F938C01FC01808160E00E9441086F
:10177000C8010E94800BC8010E94980B1F910F9115
:101780000895EF92FF920F931F93CF93DF93EC0195
:10179000F62EE72E9C81142F941708F4192F8E81B2
:1017A000882311F000E002C0092F011BCE0160E088
:1017B00070E00E94330B81E68EBD0DB407FEFDCFB5
:1017C0008F2D9E2D9C01F901FEB49FEF07C09EBD99
:1017D0000DB407FEFDCF8EB5819311501123B9F7DB
:1017E00007C08EBD0DB407FEFDCF9EB5015001C0F0
:1017F0008FEF0023B1F7CE0161E070E00E94330B60
:101800008F2DDF91CF911F910F91FF90EF90089551
:10181000EF92FF920F931F93CF93DF93EC01F62E7D
:10182000E72E9C81142F941708F4192F8E8188239A
:1018300011F000E002C0092F011BCE0160E070E052
:101840000E94330B80EA8EBD0DB407FEFDCF8F2DB5
:101850009E2D9C01F901FEB408C080818EBD0DB49F
:1018600007FEFDCF31968EB511501123B1F706C09A
:101870001EBC0DB407FEFDCF8EB501500023C1F78D
:10188000CE0161E070E00E94330B8F2DDF91CF918C
:101890001F910F91FF90EF9008950F931F93CF9397
:1018A000DF93EC01162F042F60E070E00E94330BF1
:1018B0001F7110621EBD0DB407FEFDCF1EB50EBD1B
:1018C0000DB407FEFDCF8EB5CE0161E070E00E9441
:1018D000330B812FDF91CF911F910F910895262F08
:1018E0004F702295207F242B64E0422F0E944D0CE4
:1018F0000895CF92DF92EF92FF920F931F938B0187
:101900007A01690167E040E70E944D0C90E09C017C
:10191000E5E036952795EA95E1F72170F8012083F7
:1019200074E0969587957A95E1F7282F2170F70155
:10193000208396958795969587958170F60180838B
:101940001F910F91FF90EF90DF90CF900895DF925D
:10195000EF92FF920F931F93CF93DF938C017B0144
:101960000E94680BC82FD0E0CE01A6E0969587951F
:10197000AA95E1F7DD24D394D82280FF15C0E114A5
:10198000F10431F0CE01959587958770F70180833A
:10199000C80167E040E40E944D0CC5FF05C0C801C6
:1019A00067E040E20E944D0C8D2DDF91CF911F9199
:1019B0000F91FF90EF90DF90089560E070E00E943B
:1019C000A70C0895462F603808F04FE765E00E94A5
:1019D0004D0C0895EF92FF920F931F93CF93DF93D7
:1019E0007C01162FEA01022F60E070E00E94330BA9
:1019F0001F7110621EBD0DB407FEFDCF1EB508C0DD
:101A000088818EBD0DB407FEFDCF21968EB50150A5
:101A10000023B1F7C70161E070E00E94330B812F12
:101A2000DF91CF911F910F91FF90EF900895EF926A
:101A3000FF920F931F93DF93CF93CDB7DEB7289715
:101A40000FB6F894DEBF0FBECDBF7C0109831A83A9
:101A50002B833C834D835E836F8378878E010F5F7A
:101A60001F4F6AE0A80125E00E94EA0CC70160E16F
:101A7000A80125E00E94EA0CF7014481413208F0F8
:101A800040E2C70161E10E944D0C28960FB6F89420
:101A9000DEBF0FBECDBFCF91DF911F910F91FF90A1
:101AA000EF9008951F93CF93DF93EC01162F60E022
:101AB00070E00E94330B1F711EBD0DB407FEFDCFF9
:101AC0008EB58FEF8EBD0DB407FEFDCF1EB5CE01D6
:101AD00061E070E00E94330B812FDF91CF911F9165
:101AE000089560E00E94520D8C7083FD03C020E0D9
:101AF00030E007C082FD03C021E030E002C022E0F8
:101B000030E0C90108950F931F93CF93DF938C01A9
:101B1000EB0160E00E94520D482F437F209729F08F
:101B2000219711F4486001C04C60C80160E00E9438
:101B30004D0CDF91CF911F910F91089566E00E94A7
:101B4000520D8872803219F422E030E006C020E0A5
:101B500030E0883011F421E030E0C9010895FF92AF
:101B60000F931F93CF93DF93EC018B0166E00E94EC
:101B7000520D1A82B7EDFB2EF8220230110511F436
:101B800080E206C00130110529F481E08A8388E0F3
:101B9000F82A01C01A82CE0166E04F2D0E944D0C3A
:101BA000CE0166E00E94520D8F1511F481E002C053
:101BB0001A8280E0DF91CF911F910F91FF900895DD
:101BC00066E00E94520D8670863019F423E030E002
:101BD0000BC0843019F422E030E006C020E030E091
:101BE000823011F421E030E0C90108950F931F9372
:101BF000CF93DF938C01EB0166E00E94520D482FDA
:101C0000497FC330D10571F0C230D10511F4446071
:101C10000AC0C130D10511F4426005C0209719F007
:101C2000249709F44660C80166E00E944D0CDF91DC
:101C3000CF911F910F910895BF92CF92DF92EF92B3
:101C4000FF920F931F93DF93CF93CDB7DEB7289703
:101C50000FB6F894DEBF0FBECDBF6C01B62EE98281
:101C6000FA820B831C832D833E834F835887662320
:101C700089F4F601E0868A8181878B8182878C8155
:101C800083878D8184878E8185878F8186878885EC
:101C9000878707C0F6E0F61708F43DC081E06817B3
:101CA00061F4EB2DF0E0EE53FF4FE491C6016E2F8F
:101CB000AE014F5F5F4F25E00BC0E62FF0E0EE5323
:101CC000FF4FE491C6016E2FAE014F5F5F4F21E0E1
:101CD0000E94EA0C0B2D10E0F801E853FF4FE4914D
:101CE000C6016E2FF60144810E944D0CC60162E0D0
:101CF0000E94520D02531F4FF801649121E030E021
:101D000002C0220F331F6A95E2F7482F422BC6010B
:101D100062E00E944D0C28960FB6F894DEBF0FBE0D
:101D2000CDBFCF91DF911F910F91FF90EF90DF908A
:101D3000CF90BF9008950F931F938C010E94C10B09
:101D4000C80167E10E94520D81701F910F910895A3
:101D5000DF92EF92FF920F931F938C017B01D42EA1
:101D600060E00E94520D482F4C7F4260C80160E045
:101D70000E944D0C86E990E00E949B07C801B701C4
:101D80004D2D0E94080CF801808161E00E944108FD
:101D90008FE090E00E949B07F801808160E00E9444
:101DA00041081F910F91FF90EF90DF9008950F93DE
:101DB0001F938C0160E00E94520D482F4D7FC80197
:101DC00060E00E944D0C1F910F910895CF93DF9317
:101DD000EC0160E00E94520D482F4360CE0160E0AC
:101DE0000E944D0CCE0167E040E70E944D0C8885B3
:101DF0009985892B9A85892B9B85892B9C85892B95
:101E00009D85892B9E85892B9F85892B41F0AE016D
:101E1000485F5F4FCE016AE025E00E94EA0CCE01E8
:101E20000E94980BCE010E94800B888161E00E9485
:101E3000410882E890E00E949B07DF91CF910895CE
:101E4000CF92DF92FF920F931F93CF93DF936C019A
:101E5000EB01042FF22ECB010E947201089710F0C3
:101E600020E001C029E000D000D000D0EDB7FEB7DF
:101E7000319681EB91E0ADB7BEB712969C938E93ED
:101E80001197D383C283822F992787FD90959583DD
:101E900084830E94DC01EDB7FEB736960FB6F89446
:101EA000FEBF0FBEEDBFC9EAD1E01BC0102F1F5F00
:101EB000C601602F0E94520D00D000D0EDB7FEB7D2
:101EC0003196ADB7BEB71296DC93CE93119782834D
:101ED00013820E94DC01FA94012F0F900F900F9053
:101EE0000F90FF2019F700D086EA91E0EDB7FEB71A
:101EF000928381830E94DC010F900F90DF91CF913C
:101F00001F910F91FF90DF90CF900895CF93DF93B3
:101F1000EC01888161E00E940208898161E00E94F1
:101F200002080E945A12888160E00E944108CE0196
:101F300061E070E00E94330B65E070E080E090E0CB
:101F40000E944207CE0164E04FE40E944D0CCE0196
:101F500063E070E00E94F60DCE0162E070E00E9446
:101F6000AF0D882311F081E08B83CE0160E070E03B
:101F70000E94AF0DCE0162E070E00E94830DCE01A1
:101F80006CE140E00E944D0CCE0167E040E70E940A
:101F90004D0CCE016CE40E94E20CCE010E94980B25
:101FA000CE010E94800BDF91CF910895EF92FF92B6
:101FB0000F931F93CF93DF937C01162FEA01022F1B
:101FC00060E070E00E94330B1F711EBD0DB407FE70
:101FD000FDCF1EB59FEF07C09EBD0DB407FEFDCF20
:101FE0008EB5899301500023B9F7C70161E070E015
:101FF0000E94330B812FDF91CF911F910F91FF90A2
:10200000EF900895AF92BF92CF92DF92EF92FF923E
:102010000F931F93DF93CF9300D00F92CDB7DEB70E
:102020008C010E94A80E0E940E076B017C015E01CC
:102030000894A11CB11CC80168E0A50121E00E9420
:10204000D60F807331F50E940E076C197D098E0939
:102050009F09645F714080409040D8F4ECCFC80184
:102060000E944A0BF8018783C8010E94D70EC8015D
:102070000E94800B8F2D0F900F900F90CF91DF91CA
:102080001F910F91FF90EF90DF90CF90BF90AF9096
:10209000089598012B5F3F4FC801BE016E5F7F4FCF
:1020A000AE014D5F5F4F0E94790CFA80F801858187
:1020B0008823D1F2D4CF4F925F926F927F928F920A
:1020C0009F92AF92BF92CF92DF92EF92FF920F93C7
:1020D0001F93DF93CF9300D000D00F92CDB7DEB720
:1020E0006C018B01E42EF22ECB010E947201089745
:1020F00010F020E001C029E000D000D000D0EDB702
:10210000FEB731968EE991E0ADB7BEB712969C93BB
:102110008E93119713830283822F992787FD9095C1
:10212000958384830E94DC01EDB7FEB736960FB627
:10213000F894FEBF0FBEEDBF2E010894411C511C48
:102140008AE9682E81E0782E06E0802E912C8C0E94
:102150009D1E15E9A12E11E0B12E2FC0C6016E2DD6
:10216000A20125E00E94D60F00D0ADB7BEB71296EF
:102170007C926E9211970E94DC0184010F900F9067
:1021800015C000D000D0EDB7FEB73196ADB7BEB7E1
:102190001296BC92AE921197D8018C9182831382D1
:1021A0000E94DC010F900F900F900F900150104093
:1021B0000C171D0731F7E394FA94FF2079F600D04D
:1021C00082E991E0EDB7FEB7928381830E94DC0142
:1021D0000F900F900F900F900F900F900F90CF9146
:1021E000DF911F910F91FF90EF90DF90CF90BF9004
:1021F000AF909F908F907F906F905F904F900895D9
:102200000F931F938C010E94680B682FC8010E94D6
:10221000E90AC80165E871E04AE022E00E945B102B
:10222000C80168E771E04CE024E00E94200FC8017B
:1022300060E771E040E121E00E945B10C80165E6C3
:1022400071E041E126E00E94200FC8016FE571E0D6
:1022500041E021E00E94200FC80165E571E042E005
:1022600021E00E94200FC8016FE471E045E021E009
:102270000E94200FC80166E471E046E021E00E9460
:10228000200FC8016FE371E040E021E00E94200FC1
:10229000C80161E371E04CE122E00E94200FC80117
:1022A0000E949E0DFC01EE0FFF1FEC52FF4F259187
:1022B000349100D000D08FE191E0EDB7FEB792836A
:1022C0008183348323830E94DC01F8018381E82F1A
:1022D000F0E0EE0FFF1FE652FF4F2591349180E1B1
:1022E00091E0EDB7FEB792838183348323830E940C
:1022F000DC010F900F900F900F90C8010E94710D9C
:10230000FC01EE0FFF1FE252FF4F2591349100D0E8
:1023100000D08DEF90E0EDB7FEB7928381833483D8
:1023200023830E94DC010F900F900F900F90C80143
:102330000E94E00DFC01EE0FFF1FEC51FF4F2591B5
:10234000349100D000D08CEE90E0EDB7FEB79283D0
:102350008183348323830E94DC010F900F900F90C0
:102360000F901F910F9108950F931F93CF93DF93B9
:10237000BC018230910510F462E070E0E09101024E
:10238000F0910202A0E0B0E040E050E024C0808183
:10239000918186179707D0F08617970771F482818D
:1023A0009381109729F013969C938E9312972CC0CB
:1023B000909302028093010227C04115510519F044
:1023C0008417950718F4EF018D01AC01DF018281BC
:1023D00093819C01F9013097D1F641155105F9F02F
:1023E000CA01861B970B8430910580F48A819B81FA
:1023F0000115110521F0F8019383828304C09093A5
:10240000020280930102FE0132962FC0FE01E80F06
:10241000F91F6193719302979983888326C08DB7C2
:102420009EB78857904020911C0130911D012817BC
:102430003907C8F4AC01421B530B4617570798F0F5
:10244000CB0102964817590770F0820F931F9093A3
:102450001D0180931C0190931F0180931E01F901BF
:102460006193719302C0E0E0F0E0CF01DF91CF9182
:102470001F910F910895882319F48CB5806202C0D2
:102480008CB58F7D8CBD08959CB5937F982B9CBD9A
:1024900008952CB5382F33702C7F322B3CBD2DB5D1
:1024A00090E0959587959595879581702E7F822BE5
:1024B0008DBD08958AE061E00E9441088AE061E0F4
:1024C0000E9402088CB580618CBD8CB580648CBD87
:1024D0008DE061E00E9402088BE061E00E9402084A
:1024E00008955058BB27AA270ED0E5C0D6D030F0AB
:1024F000DBD020F031F49F3F11F41EF4CBC00EF47A
:10250000E095E7FBC1C0E92FE7D080F3BA17620777
:1025100073078407950718F071F49EF5FFC00EF459
:10252000E0950B2EBA2FA02D0B01B90190010C01E3
:10253000CA01A0011124FF27591B99F0593F50F4FB
:10254000503E68F11A16F040A22F232F342F442753
:10255000585FF3CF469537952795A795F04053954B
:10256000C9F77EF41F16BA0B620B730B840BBAF01B
:102570009150A1F0FF0FBB1F661F771F881FC2F786
:102580000EC0BA0F621F731F841F48F4879577959A
:102590006795B795F7959E3F08F0B3CF9395880F51
:1025A00008F09927EE0F97958795089504D06894C1
:1025B000B111B5C0089598D088F09F5790F0B92F09
:1025C0009927B751A0F0D1F0660F771F881F991F88
:1025D0001AF0BA95C9F712C0B13081F09FD0B1E0BE
:1025E00008959CC0672F782F8827B85F39F0B93FCE
:1025F000CCF3869577956795B395D9F73EF490958A
:102600008095709561957F4F8F4F9F4F0895E89407
:1026100009C097FB3EF490958095709561957F4F2A
:102620008F4F9F4F9923A9F0F92F96E9BB279395D8
:10263000F695879577956795B795F111F8CFFAF4E8
:10264000BB0F11F460FF1BC06F5F7F4F8F4F9F4F19
:1026500016C0882311F096E911C0772321F09EE877
:10266000872F762F05C0662371F096E8862F70E0DD
:1026700060E02AF09A95660F771F881FDAF7880FB7
:102680009695879597F9089597F99F6780E870E088
:1026900060E008959FEF80EC089500240A941616D8
:1026A000170618060906089500240A941216130640
:1026B000140605060895092E0394000C11F48823CE
:1026C00052F0BB0F40F4BF2B11F460FF04C06F5FEA
:1026D0007F4F8F4F9F4F089557FD9058440F551FC0
:1026E00059F05F3F71F04795880F97FB991F61F094
:1026F0009F3F79F087950895121613061406551F0B
:10270000F2CF4695F1DF08C0161617061806991F76
:10271000F1CF86957105610508940895E894BB276B
:1027200066277727CB0197F908950BD0C4CFB5DF83
:1027300028F0BADF18F0952309F0A6CFABCF11240B
:10274000EECFCADFA0F3959FD1F3950F50E0551F50
:10275000629FF001729FBB27F00DB11D639FAA27F6
:10276000F00DB11DAA1F649F6627B00DA11D661F45
:10277000829F2227B00DA11D621F739FB00DA11D66
:10278000621F839FA00D611D221F749F3327A00D20
:10279000611D231F849F600D211D822F762F6A2FBC
:1027A00011249F5750408AF0E1F088234AF0EE0F41
:1027B000FF1FBB1F661F771F881F91505040A9F74E
:1027C0009E3F510570F060CFAACF5F3FECF3983E7B
:1027D000DCF3869577956795B795F795E7959F5FB5
:1027E000C1F7FE2B880F911D9695879597F908954F
:1027F000629FD001739FF001829FE00DF11D649FE5
:10280000E00DF11D929FF00D839FF00D749FF00D70
:10281000659FF00D9927729FB00DE11DF91F639F11
:10282000B00DE11DF91FBD01CF0111240895A1E2F2
:102830001A2EAA1BBB1BFD010DC0AA1FBB1FEE1F3A
:10284000FF1FA217B307E407F50720F0A21BB30B85
:10285000E40BF50B661F771F881F991F1A9469F701
:1028600060957095809590959B01AC01BD01CF015D
:1028700008952F923F924F925F926F927F928F9224
:102880009F92AF92BF92CF92DF92EF92FF920F93FF
:102890001F93CF93DF93CDB7DEB7CA1BDB0B0FB609
:1028A000F894DEBF0FBECDBF09942A8839884888C6
:1028B0005F846E847D848C849B84AA84B984C8845C
:1028C000DF80EE80FD800C811B81AA81B981CE0F53
:1028D000D11D0FB6F894DEBF0FBECDBFED01089538
:1028E000EE0FFF1F0590F491E02D0994F894FFCFAF
:1028F00054726176656C54696D65203D20256C7558
:1029000020200A0D000A0001000E000109026400E7
:1029100000000000100AA60AA609D709B709000A94
:00000001FF
