:100000000C9445010C946D010C946D010C946D01E0
:100010000C946D010C946D010C946D010C946D01A8
:100020000C946D010C946D010C946D010C946D0198
:100030000C946D010C946D010C946D010C946D0188
:100040000C94AE060C946D010C9489080C94D7089E
:100050000C946D010C946D010C946D010C946D0168
:100060000C946D010C946D01000000002400270029
:100070002A0000000000250028002B0000000000DE
:1000800023002600290004040404040404040202DA
:100090000202020203030303030301020408102007
:1000A0004080010204081020010204081020000012
:1000B0000007000201000003040600000000000029
:1000C00000000A0B0C0D0E0F11121314151600016F
:1000D0000203040529022F0235023D0246025002A6
:1000E0005902600268026F0276027D025041205080
:1000F0006F77657209203D2025530D0A0043524356
:10010000204C656E67746809203D2025530D0A0058
:100110004D6F64656C0909203D2025530D0A00448C
:10012000617461205261746509203D2025530D0AD8
:100130000044594E50442F464541545552450043C2
:100140004F4E4649470052465F5345545550005262
:10015000465F434800454E5F525841444452004573
:100160004E5F41410052585F50575F50302D36006E
:1001700054585F414444520052585F414444525FD6
:1001800050322D350052585F414444525F50302D5B
:1001900031000D0A002530327800203078002553D8
:1001A000092563203D000D0A002030782530327883
:1001B000002553092563203D004F425345525645C3
:1001C0005F54583D253032783A20504F4C535F43AE
:1001D0004E543D2578204152435F434E543D25788F
:1001E0000D0A005354415455530909203D203078DD
:1001F000253032782052585F44523D25782054589B
:100200005F44533D2578204D41585F52543D257839
:100210002052585F505F4E4F3D25782054585F461E
:10022000554C4C3D25780D0A00314D42505300325B
:100230004D425053003235304B425053006E5246BF
:1002400032344C3031006E524632344C30312B0057
:1002500044697361626C656400382062697473007C
:10026000313620626974730050415F4D494E005031
:10027000415F4C4F57004C415F4D45440050415F3A
:10028000484947480000A204430A11241FBECFEF8B
:10029000D8E0DEBFCDBF11E0A0E0B1E0EAE8F5E2D2
:1002A00002C005900D92AC3EB107D9F712E0ACEE5A
:1002B000B1E001C01D92A93BB107E1F712E0CAE825
:1002C000D2E004C02297FE010E94BF12C638D107B7
:1002D000C9F70E9490060C946F010C940000F894EA
:1002E0000C94C312FC0105900020E9F780959095CD
:1002F0008E0F9F1F08950F931F93CF93DF938C0151
:10030000EB01009731F46115710519F420E030E03C
:1003100038C081E090E06EE070E00E94DF03FC01F5
:100320009C01009771F180E88383209771F0D38757
:10033000C28781E883838091B3029091B402892BB4
:1003400021F4F093B402E093B30201151105C9F052
:10035000118700878381826083838091B5029091A9
:10036000B602892B71F4F093B602E093B502809146
:10037000B7029091B802892B21F4F093B802E09370
:10038000B702C901DF91CF911F910F910895A0E0AD
:10039000B0E0EDECF1E00C949612FE01359661911F
:1003A00071918091B5029091B602AF010E94020254
:1003B0002096E2E00C94B212A0E0B0E0E2EEF1E0B0
:1003C0000C949612FE01359661917191A091B5023F
:1003D000B091B60213968C911397886013968C9304
:1003E0008091B5029091B602AF010E940202E091A5
:1003F000B502F091B6022381277F23832096E2E0A5
:100400000C94B212ABE0B0E0E8E0F2E00C9486129B
:100410003C012B015A01FC0117821682838181FD68
:1004200003C06FEF7FEFC6C19AE0892E1E010894CA
:10043000211C311CF3012381F20123FD859123FF4F
:1004400081912F01882309F4B2C1853239F423FD4B
:10045000859123FF81912F01853229F490E0B3012A
:100460000E941804E7CF982FFF24EE249924FFE17F
:10047000FF15D0F09B3269F09C3228F4903259F08D
:10048000933291F40EC09D3249F0903369F441E00B
:1004900024C052E0F52A84E0F82A28C098E0F92A1E
:1004A00025C0E0E1FE2A22C0F7FC29C0892F805335
:1004B0008A3070F4F6FE05C0989C902C1124980E9A
:1004C00015C0E89CE02C1124E80EF0E2FF2A0EC0D3
:1004D0009E3229F4F6FC6BC140E4F42A07C09C3636
:1004E00019F450E8F52A02C0983649F4F20123FDC8
:1004F000959123FF91912F01992309F0B8CF892F6E
:100500008554833018F08052833038F444E050E052
:10051000A40EB51E5FE359830FC0933631F09337B5
:1005200079F0933509F056C020C0F50180818983A8
:1005300042E050E0A40EB51E610101E010E012C0DF
:10054000F501C080D180F6FC03C06FEF7FEF02C0E1
:10055000692D70E042E050E0A40EB51EC6010E9475
:100560000D048C015FE7F52214C0F501C080D18035
:10057000F6FC03C06FEF7FEF02C0692D70E042E030
:1005800050E0A40EB51EC6010E94FB038C0150E88A
:10059000F52AF3FE07C01AC080E290E0B3010E9482
:1005A0001804EA948E2D90E008171907A8F30EC0DE
:1005B000F601F7FC8591F7FE81916F0190E0B301A0
:1005C0000E941804E110EA94015010400115110531
:1005D00079F7EAC0943611F0993669F5F7FE08C04C
:1005E000F501208131814281538184E090E00AC08D
:1005F000F501808191819C01442737FD4095542F5E
:1006000082E090E0A80EB91E9FE6F92257FF09C0CC
:1006100050954095309521953F4F4F4F5F4FE0E803
:10062000FE2ACA01B901A1012AE030E00E94440477
:10063000D82ED21840C0953729F41F2D1F7E2AE0EE
:1006400030E01DC01F2D197F9F3661F0903720F4D8
:10065000983509F0ACC00FC0903739F0983709F0E1
:10066000A6C004C028E030E00AC0106114FD146088
:1006700020E130E004C014FD166020E132E017FFF5
:1006800008C0F501608171818281938144E050E06E
:1006900008C0F50180819181BC0180E090E042E0DA
:1006A00050E0A40EB51EA1010E944404D82ED21819
:1006B0008FE7F82EF122F6FE0BC05EEFF522D9147B
:1006C00038F4F4FE07C0F2FC05C08FEEF82202C039
:1006D0001D2D01C0192DF4FE0DC0FE01ED0DF11D03
:1006E0008081803319F499EEF92208C01F5FF2FE71
:1006F00005C003C08F2D867809F01F5F0F2DF3FC16
:1007000014C0F0FE0FC01E1510F09D2C0BC09D2CC8
:100710009E0C911A1E2D06C080E290E0B3010E944B
:1007200018041F5F1E15C0F304C01E1510F4E11A53
:1007300001C0EE2404FF0FC080E390E0B3010E94EB
:10074000180402FF1DC001FD03C088E790E00EC041
:1007500088E590E00BC0802F867891F001FF02C001
:100760008BE201C080E2F7FC8DE290E0B3010E94D1
:10077000180406C080E390E0B3010E9418049A9424
:10078000D914C0F3DA94F101ED0DF11D808190E0F0
:10079000B3010E941804DD20A9F706C080E290E0B2
:1007A000B3010E941804EA94EE20C1F743CEF3018E
:1007B00066817781CB012B96E2E10C94A2120F9314
:1007C0001F93CF93DF93689F8001699F100D789FDF
:1007D000100D1124C8010E94A711EC01009729F007
:1007E00060E070E0A8010E940604CE01DF91CF9185
:1007F0001F910F910895FC01059061507040011008
:10080000D8F7809590958E0F9F1F0895DC0101C049
:100810006D9341505040E0F70895FC0161507040E5
:1008200001900110D8F7809590958E0F9F1F089525
:100830000F931F93CF93DF938C01EB018B8181FF8B
:100840001BC082FF0DC02E813F818C819D812817A6
:10085000390764F4E881F9810193F983E88306C0DC
:10086000E885F985802F0995892B31F48E819F8148
:1008700001969F838E8302C00FEF1FEFC801DF91A7
:10088000CF911F910F910895FA01AA27283051F1B5
:10089000203181F1E8946F936E7F6E5F7F4F8F4FB1
:1008A0009F4FAF4FB1E03ED0B4E03CD0670F781F10
:1008B000891F9A1FA11D680F791F8A1F911DA11DF5
:1008C0006A0F711D811D911DA11D20D009F468942E
:1008D0003F912AE0269F11243019305D3193DEF6D6
:1008E000CF010895462F4770405D4193B3E00FD08C
:1008F000C9F7F6CF462F4F70405D4A3318F0495D77
:1009000031FD4052419302D0A9F7EACFB4E0A69559
:100910009795879577956795BA95C9F7009761057B
:10092000710508959B01AC010A2E069457954795D1
:1009300037952795BA95C9F7620F731F841F951FC6
:10094000A01D08958CEE91E063E049E00E94C30A87
:100950000895CF92DF92EF92FF920F931F93DF9350
:10096000CF93CDB7DEB728970FB6F894DEBF0FBE92
:10097000CDBF8091FC019091FD01019709F0AEC0BF
:100980008CEE91E00E94A30B0E94F60669837A83A5
:100990008B839C8300D000D000D020E031E0ADB745
:1009A000BEB712963C932E931197EDB7FEB76383B3
:1009B0007483858396830E94C7012DB73EB72A5F53
:1009C0003F4F0FB6F8943EBF0FBE2DBF8CEE91E0A7
:1009D000BE016F5F7F4F44E00E94F50F882351F006
:1009E00000D083E191E0ADB7BEB712969C938E9391
:1009F000119707C000D089E191E0EDB7FEB792836F
:100A000081830E94C7010F900F908CEE91E00E94AD
:100A1000D90E0E94F6066B017C0110E08CEE91E08D
:100A20000E94D00C882379F4112379F40E94F606F1
:100A30006C197D098E099F09693C71058105910535
:100A400068F311E0EBCF112371F000D083E291E065
:100A5000ADB7BEB712969C938E9311970E94C701B3
:100A60000F900F9035C08CEE91E0BE016B5F7F4F11
:100A700044E00E948E0E0E94F606ED80FE800F81FB
:100A80001885EDB7FEB73A970FB6F894FEBF0FBEC4
:100A9000EDBF319621E431E0ADB7BEB712963C937D
:100AA0002E931197E282F382048315836E197F09D6
:100AB000800B910B66837783808791870E94C701A3
:100AC000EDB7FEB73A960FB6F894FEBF0FBEEDBF76
:100AD00068EE73E080E090E00E9404078091FC01E2
:100AE0009091FD01029709F058C08CEE91E00E94B0
:100AF000D00C882309F451C095E0E92EF12CEC0EBE
:100B0000FD1E8BE6C82E81E0D82E8CEE91E0B70159
:100B100044E00E948E0E182F00D000D000D0ADB758
:100B2000BEB71296DC92CE9211978D819E81AF81D5
:100B3000B885EDB7FEB783839483A583B6830E94FF
:100B4000C7012DB73EB72A5F3F4F0FB6F8943EBF9F
:100B50000FBE2DBF64E170E080E090E00E940407CA
:100B6000112399F28CEE91E00E94A30B8CEE91E0A0
:100B7000B70144E00E94F50F00D08EE791E0ADB7D9
:100B8000BEB712969C938E9311970E94C7010F9047
:100B90000F908CEE91E00E94D90E28960FB6F89433
:100BA000DEBF0FBECDBFCF91DF911F910F91FF90A0
:100BB000EF90DF90CF9008958FE996E060E070E0CD
:100BC0000E947B010895EF92FF920F931F9387E09D
:100BD00060E00E94A20787E061E00E94E10764E113
:100BE00070E080E090E00E94040787E00E943508F2
:100BF000892B19F481E090E002C082E090E09093AC
:100C0000FD018093FC018FE892E040E051EE60E04E
:100C100070E00E9412090E94DC0500D08FE891E08C
:100C2000EDB7FEB7928381830E94C70100D08BEAA3
:100C300091E0EDB7FEB792838183E091FC01F091E2
:100C4000FD01EE0FFF1FEF52FE4F80819181EDB746
:100C5000FEB7948383830E94C7010F900F900F907B
:100C60000F908CEE91E00E94790F8CEE91E061E69E
:100C70000E94D50C8CEE91E063E070E00E94E90DDB
:100C80008CEE91E06FE04FE00E94620C8CEE91E000
:100C900068E00E94D60A8091FC019091FD010197C5
:100CA000B9F48CEE91E00AEB1CED2EEF30E142E35B
:100CB00050E060E070E00E940A0D8CEE91E061E08F
:100CC00043E2E42EFF24F3940FEE1DEC2BEA16C052
:100CD0008CEE91E003E211E02FEE3DEC4BEA50E0A8
:100CE00060E070E00E940A0D8CEE91E061E03AEB6A
:100CF000E32E2CEDF22E0EEF10E122E330E040E087
:100D000050E00E940F0E8CEE91E00E94D90E8CEE06
:100D100091E00E94F3101F910F91FF90EF900895C2
:100D2000CF93DF930E9467070E94E305C4ECD8E0ED
:100D30000E94A9042097E1F30E94C408F9CF0F9301
:100D40001F93082F112707FD10958FE892E0602F61
:100D50000E94030AC8011F910F9108951F920F92DC
:100D60000FB60F9211242F933F938F939F93AF93BE
:100D7000BF938091020290910302A0910402B0916E
:100D80000502309106020196A11DB11D232F2D5F92
:100D90002D3720F02D570196A11DB11D209306027D
:100DA0008093020290930302A0930402B093050281
:100DB0008091FE019091FF01A0910002B09101028B
:100DC0000196A11DB11D8093FE019093FF01A09398
:100DD0000002B0930102BF91AF919F918F913F911B
:100DE0002F910F900FBE0F901F9018958FB7F8940A
:100DF00020910202309103024091040250910502B9
:100E00008FBFB901CA0108959B01AC017FB7F89467
:100E10008091FE019091FF01A0910002B09101022A
:100E200066B5A89B05C06F3F19F00196A11DB11DC5
:100E30007FBFBA2FA92F982F8827860F911DA11D3C
:100E4000B11D62E0880F991FAA1FBB1F6A95D1F7D9
:100E5000BC012DC0FFB7F8948091FE019091FF0175
:100E6000A0910002B0910102E6B5A89B05C0EF3F3A
:100E700019F00196A11DB11DFFBFBA2FA92F982F00
:100E800088278E0F911DA11DB11DE2E0880F991FCB
:100E9000AA1FBB1FEA95D1F7861B970B885E93406C
:100EA000C8F2215030404040504068517C4F2115DD
:100EB00031054105510571F60895019739F0880F04
:100EC000991F880F991F02970197F1F70895789459
:100ED00084B5826084BD84B5816084BD85B582603F
:100EE00085BD85B5816085BDEEE6F0E080818160DD
:100EF0008083E1E8F0E010828081826080838081DD
:100F000081608083E0E8F0E0808181608083E1EBB4
:100F1000F0E0808184608083E0EBF0E0808181609C
:100F20008083EAE7F0E08081846080838081826052
:100F3000808380818160808380818068808310923B
:100F4000C1000895CF93DF93482F50E0CA01865621
:100F50009F4FFC0134914A575F4FFA0184918823D7
:100F600069F190E0880F991FFC01E859FF4FA591A6
:100F7000B491FC01EE58FF4FC591D491662351F412
:100F80002FB7F8948C91932F909589238C93888117
:100F900089230BC0623061F42FB7F8948C91932FA2
:100FA000909589238C938881832B88832FBF06C0DB
:100FB0009FB7F8948C91832B8C939FBFDF91CF9137
:100FC0000895482F50E0CA0182559F4FFC0124919B
:100FD000CA0186569F4FFC0194914A575F4FFA0110
:100FE0003491332309F440C0222351F1233071F0AE
:100FF000243028F42130A1F0223011F514C026301D
:10100000B1F02730C1F02430D9F404C080918000C1
:101010008F7703C0809180008F7D8093800010C007
:1010200084B58F7702C084B58F7D84BD09C080915F
:10103000B0008F7703C08091B0008F7D8093B000A7
:10104000E32FF0E0EE0FFF1FEE58FF4FA591B49194
:101050002FB7F894662321F48C919095892302C0D0
:101060008C91892B8C932FBF0895682F70E0CB0152
:1010700082559F4FFC012491CB0186569F4FFC0166
:1010800044916A577F4FFB019491992319F420E012
:1010900030E03CC0222351F1233071F0243028F499
:1010A0002130A1F0223011F514C02630B1F02730E4
:1010B000C1F02430D9F404C0809180008F7703C040
:1010C000809180008F7D8093800010C084B58F77E1
:1010D00002C084B58F7D84BD09C08091B0008F7738
:1010E00003C08091B0008F7D8093B000892F90E085
:1010F000880F991F84589F4FFC01A591B4918C9142
:1011000020E030E0842311F021E030E0C9010895AF
:1011100008951F920F920FB60F9211242F933F93B1
:101120004F938F939F93EF93FF938091C00082FD25
:101130001DC04091C60020914702309148022F5FA8
:101140003F4F2F7330708091490290914A022817C7
:10115000390771F0E0914702F0914802E95FFD4FD5
:101160004083309348022093470202C08091C6001A
:10117000FF91EF919F918F914F913F912F910F9000
:101180000FBE0F901F901895E0919B02F0919C026A
:10119000E05CFF4F8191919120813181821B930B03
:1011A0008F739070892B11F00E94880808951F9208
:1011B0000F920FB60F9211242F933F938F939F930B
:1011C000EF93FF9320918B0230918C0280918D02DE
:1011D00090918E022817390731F48091C1008F7DDC
:1011E0008093C10014C0E0918D02F0918E02E55B06
:1011F000FD4F208180918D0290918E0201968F7318
:10120000907090938E0280938D022093C600FF9180
:10121000EF919F918F913F912F910F900FBE0F9063
:101220001F901895AF92BF92DF92EF92FF920F93AB
:101230001F93CF93DF93EC017A018B01DD244030C3
:1012400081EE580780E0680780E0780711F0DD2420
:10125000D39491E0A92EB12CEC89FD89DD2069F0B1
:10126000C50108A002C0880F991F0A94E2F7808385
:1012700060E079E08DE390E005C0108260E874E8FA
:101280008EE190E0A80197010E9464122150304045
:1012900040405040569547953795279580E120303E
:1012A000380720F0DD2011F0DD24D6CFE889F98958
:1012B0003083EA89FB89208319A2EE89FF89408166
:1012C00021E030E0C9010C8C02C0880F991F0A94FC
:1012D000E2F7482B4083EE89FF894081C9010D8CDC
:1012E00002C0880F991F0A94E2F7482B4083EE89C9
:1012F000FF894081C9010E8C02C0880F991F0A9492
:10130000E2F7482B4083EE89FF8980810F8C02C071
:10131000220F331F0A94E2F7209528232083DF91C0
:10132000CF911F910F91FF90EF90DF90BF90AF9002
:101330000895DC011C96ED91FC911D97E05CFF4F38
:101340002191319180819181281B390B2F7330704D
:10135000C9010895DC011C96ED91FC911D97E05C9C
:10136000FF4F20813181E054F040DF01AE5BBF4F81
:101370008D919C9111972817390719F42FEF3FEFA2
:1013800007C08D919C91E80FF91F8081282F30E0D4
:10139000C9010895DC011C96ED91FC911D97E05C5C
:1013A000FF4F20813181E054F040DF01AE5BBF4F41
:1013B0008D919C9111972817390719F42FEF3FEF62
:1013C00010C08D919C911197E80FF91F20818D918C
:1013D0009C91119701968F73907011969C938E93A8
:1013E00030E0C9010895DC0191968C919197882392
:1013F00039F05496ED91FC915597808186FFF9CF95
:1014000091961C920895CF93DF93EC01EE85FF85B2
:10141000E05CFF4F20813181E054F0402F5F3F4F6F
:101420002F733070DF01AE5BBF4F8D919C91119790
:1014300028173907D1F3E05CFF4F80819181E05498
:10144000F040E80FF91F6083EE85FF85E05CFF4FF9
:1014500031832083EE89FF89208181E090E00F8C29
:1014600002C0880F991F0A94E2F7282B208381E09D
:1014700089A3EC89FD8980818064808381E090E08C
:10148000DF91CF910895109292021092910288EE0E
:1014900093E0A0E0B0E08093930290939402A09335
:1014A0009502B09396028FED91E090939002809315
:1014B0008F0287E092E090939C0280939B028BE4E2
:1014C00092E090939E0280939D0285EC90E0909331
:1014D000A00280939F0284EC90E09093A2028093FC
:1014E000A10280EC90E09093A4028093A30281EC8F
:1014F00090E09093A6028093A50282EC90E09093F6
:10150000A8028093A70286EC90E09093AA028093B1
:10151000A90284E08093AB0283E08093AC0287E071
:101520008093AD0285E08093AE0281E08093AF02AC
:101530000895CF92DF92EF92FF920F931F93CF9374
:10154000DF937C016B018A01C0E0D0E00FC0D601BF
:101550006D916D01D701ED91FC910190F081E02D2D
:10156000C7010995C80FD91F015010400115110579
:1015700071F7CE01DF91CF911F910F91FF90EF9006
:10158000DF90CF900895FC016083418381E08283E6
:10159000138280E284831582168210861186128659
:1015A000138614861586168617860895FC01613207
:1015B00008F060E26483089570E08DB79EB70E97DF
:1015C0000FB6F8949EBF0FBE8DBFEDB7FEB7319634
:1015D00083EE91E0ADB7BEB712969C938E931197B0
:1015E00073836283CB0156E0969587955A95E1F710
:1015F0008170907095838483CB0145E096958795A3
:101600004A95E1F78170907097838683CB0134E02F
:10161000969587953A95E1F78170907091878087CC
:10162000CB019595879587709070938782876170BD
:101630007070758764870E94DC018DB79EB70E9627
:101640000FB6F8949EBF0FBE8DBF0895FF920F9303
:101650001F938C01F62E81E00E942E1280E00E94E2
:10166000371280E00E943C12F80181816F2D0E94A8
:10167000E1071F910F91FF9008951F93CF93DF9380
:10168000EC0160E070E00E94260B80E68EBD0DB498
:1016900007FEFDCF8EB58FEF8EBD0DB407FEFDCFDB
:1016A0001EB5CE0161E070E00E94260B812FDF9114
:1016B000CF911F9108951F93CF93DF93EC0160E0CA
:1016C00070E00E94260B8FEF8EBD0DB407FEFDCF9C
:1016D0001EB5CE0161E070E00E94260B812FDF91E4
:1016E000CF911F9108951F93CF93DF93EC0160E09A
:1016F00070E00E94260B81EE8EBD0DB407FEFDCF7B
:101700001EB5CE0161E070E00E94260B812FDF91B3
:10171000CF911F9108951F93CF93DF93EC0160E069
:1017200070E00E94260B82EE8EBD0DB407FEFDCF49
:101730001EB5CE0161E070E00E94260B812FDF9183
:10174000CF911F9108950F931F938C01FC0180810D
:1017500060E00E94E107C8010E94730BC8010E946B
:101760008B0B1F910F910895EF92FF920F931F9390
:10177000CF93DF93EC01F62EE72E9C81142F941764
:1017800008F4192F8E81882311F000E002C0092F80
:10179000011BCE0160E070E00E94260B81E68EBD49
:1017A0000DB407FEFDCF8F2D9E2D9C01F901FEB4D7
:1017B0009FEF07C09EBD0DB407FEFDCF8EB5819390
:1017C00011501123B9F707C08EBD0DB407FEFDCF30
:1017D0009EB5015001C08FEF0023B1F7CE0161E04B
:1017E00070E00E94260B8F2DDF91CF911F910F91FA
:1017F000FF90EF900895EF92FF920F931F93CF9376
:10180000DF93EC01F62EE72E9C81142F941708F439
:10181000192F8E81882311F000E002C0092F011BCF
:10182000CE0160E070E00E94260B80EA8EBD0DB410
:1018300007FEFDCF8F2D9E2D9C01F901FEB408C03F
:1018400080818EBD0DB407FEFDCF31968EB511504F
:101850001123B1F706C01EBC0DB407FEFDCF8EB537
:1018600001500023C1F7CE0161E070E00E94260B19
:101870008F2DDF91CF911F910F91FF90EF900895E1
:101880000F931F93CF93DF93EC01162F042F60E08B
:1018900070E00E94260B1F7110621EBD0DB407FE82
:1018A000FDCF1EB50EBD0DB407FEFDCF8EB5CE012A
:1018B00061E070E00E94260B812FDF91CF911F9194
:1018C0000F910895262F4F702295207F242B64E0DE
:1018D000422F0E94400C0895CF92DF92EF92FF9228
:1018E0000F931F938B017A01690167E040E70E9423
:1018F000400C90E09C01E5E036952795EA95E1F7EC
:101900002170F801208374E0969587957A95E1F728
:10191000282F2170F70120839695879596958795B6
:101920008170F60180831F910F91FF90EF90DF90FF
:10193000CF900895DF92EF92FF920F931F93CF9372
:10194000DF938C017B010E945B0BC82FD0E0CE019E
:10195000A6E096958795AA95E1F7DD24D394D82241
:1019600080FF15C0E114F10431F0CE019595879503
:101970008770F7018083C80167E040E40E94400C53
:10198000C5FF05C0C80167E040E20E94400C8D2DF4
:10199000DF91CF911F910F91FF90EF90DF9008950D
:1019A00060E070E00E949A0C0895462F603808F0BD
:1019B0004FE765E00E94400C0895EF92FF920F936D
:1019C0001F93CF93DF937C01162FEA01022F60E073
:1019D00070E00E94260B1F7110621EBD0DB407FE41
:1019E000FDCF1EB508C088818EBD0DB407FEFDCFAA
:1019F00021968EB501500023B1F7C70161E070E078
:101A00000E94260B812FDF91CF911F910F91FF90A4
:101A1000EF900895EF92FF920F931F93DF93CF9370
:101A2000CDB7DEB728970FB6F894DEBF0FBECDBF97
:101A30007C0109831A832B833C834D835E836F83F0
:101A400078878E010F5F1F4F6AE0A80125E00E9492
:101A5000DD0CC70160E1A80125E00E94DD0CF70163
:101A60004481413208F040E2C70161E10E94400C2C
:101A700028960FB6F894DEBF0FBECDBFCF91DF9191
:101A80001F910F91FF90EF9008951F93CF93DF93D5
:101A9000EC01162F60E070E00E94260B1F711EBD46
:101AA0000DB407FEFDCF8EB58FEF8EBD0DB407FED2
:101AB000FDCF1EB5CE0161E070E00E94260B812FA4
:101AC000DF91CF911F91089560E00E94450D8C70C9
:101AD00083FD03C020E030E007C082FD03C021E0A9
:101AE00030E002C022E030E0C90108950F931F9357
:101AF000CF93DF938C01EB0160E00E94450D482FEE
:101B0000437F209729F0219711F4486001C04C6071
:101B1000C80160E00E94400CDF91CF911F910F91AE
:101B2000089566E00E94450D8872803219F422E023
:101B300030E006C020E030E0883011F421E030E0F1
:101B4000C9010895FF920F931F93CF93DF93EC0188
:101B50008B0166E00E94450D1A82B7EDFB2EF8223C
:101B60000230110511F480E206C00130110529F49C
:101B700081E08A8388E0F82A01C01A82CE0166E0FB
:101B80004F2D0E94400CCE0166E00E94450D8F153E
:101B900011F481E002C01A8280E0DF91CF911F91A1
:101BA0000F91FF90089566E00E94450D8670863083
:101BB00019F423E030E00BC0843019F422E030E067
:101BC00006C020E030E0823011F421E030E0C901AD
:101BD00008950F931F93CF93DF938C01EB0166E081
:101BE0000E94450D482F497FC330D10571F0C230A6
:101BF000D10511F444600AC0C130D10511F442602E
:101C000005C0209719F0249709F44660C80166E0E2
:101C10000E94400CDF91CF911F910F910895BF92C8
:101C2000CF92DF92EF92FF920F931F93DF93CF93A8
:101C3000CDB7DEB728970FB6F894DEBF0FBECDBF85
:101C40006C01B62EE982FA820B831C832D833E83BE
:101C50004F835887662389F4F601E0868A8181875D
:101C60008B8182878C8183878D8184878E81858714
:101C70008F8186878885878707C0F6E0F61708F486
:101C80003DC081E0681761F4EB2DF0E0EE53FF4FAB
:101C9000E491C6016E2FAE014F5F5F4F25E00BC090
:101CA000E62FF0E0EE53FF4FE491C6016E2FAE0138
:101CB0004F5F5F4F21E00E94DD0C0B2D10E0F8011B
:101CC000E853FF4FE491C6016E2FF60144810E9454
:101CD000400CC60162E00E94450D02531F4FF801FF
:101CE000649121E030E002C0220F331F6A95E2F7D1
:101CF000482F422BC60162E00E94400C28960FB686
:101D0000F894DEBF0FBECDBFCF91DF911F910F9131
:101D1000FF90EF90DF90CF90BF9008950F931F93A7
:101D20008C010E94B40BC80167E10E94450D8170CF
:101D30001F910F910895DF92EF92FF920F931F93DF
:101D40008C017B01D42E60E00E94450D482F4C7F12
:101D50004260C80160E00E94400C86E990E00E9469
:101D60005D07C801B7014D2D0E94FB0BF801808172
:101D700061E00E94E1078FE090E00E945D07F801BA
:101D8000808160E00E94E1071F910F91FF90EF902A
:101D9000DF9008950F931F938C0160E00E94450D22
:101DA000482F4D7FC80160E00E94400C1F910F91A9
:101DB0000895CF93DF93EC0160E00E94450D482F1A
:101DC0004360CE0160E00E94400CCE0167E040E736
:101DD0000E94400C88859985892B9A85892B9B8543
:101DE000892B9C85892B9D85892B9E85892B9F8599
:101DF000892B41F0AE01485F5F4FCE016AE025E0DC
:101E00000E94DD0CCE010E948B0BCE010E94730B51
:101E1000888161E00E94E10782E890E00E945D070E
:101E2000DF91CF910895CF92DF92FF920F931F938E
:101E3000CF93DF936C01EB01042FF22ECB010E94B4
:101E40007201089710F020E001C029E000D000D016
:101E500000D0EDB7FEB7319681EB91E0ADB7BEB7DC
:101E600012969C938E931197D383C283822F9927C6
:101E700087FD9095958384830E94DC01EDB7FEB7C2
:101E800036960FB6F894FEBF0FBEEDBFC9EAD1E09B
:101E90001BC0102F1F5FC601602F0E94450D00D090
:101EA00000D0EDB7FEB73196ADB7BEB71296DC9352
:101EB000CE931197828313820E94DC01FA94012F42
:101EC0000F900F900F900F90FF2019F700D086EA27
:101ED00091E0EDB7FEB7928381830E94DC010F9001
:101EE0000F90DF91CF911F910F91FF90DF90CF90D6
:101EF0000895CF93DF93EC01888161E00E94A207EF
:101F0000898161E00E94A2070E944D12888160E0F1
:101F10000E94E107CE0161E070E00E94260B65E0BF
:101F200070E080E090E00E940407CE0164E04FE49E
:101F30000E94400CCE0163E070E00E94E90DCE01EA
:101F400062E070E00E94A20D882311F081E08B8393
:101F5000CE0160E070E00E94A20DCE0162E070E070
:101F60000E94760DCE016CE140E00E94400CCE0153
:101F700067E040E70E94400CCE016CE40E94D50C63
:101F8000CE010E948B0BCE010E94730BDF91CF918B
:101F90000895EF92FF920F931F93CF93DF937C01ED
:101FA000162FEA01022F60E070E00E94260B1F71DD
:101FB0001EBD0DB407FEFDCF1EB59FEF07C09EBD31
:101FC0000DB407FEFDCF8EB5899301500023B9F7FC
:101FD000C70161E070E00E94260B812FDF91CF9155
:101FE0001F910F91FF90EF900895AF92BF92CF9203
:101FF000DF92EF92FF920F931F93DF93CF9300D066
:102000000F92CDB7DEB78C010E949B0E0E94F606A0
:102010006B017C015E010894A11CB11CC80168E041
:10202000A50121E00E94C90F807331F50E94F606D8
:102030006C197D098E099F09645F71408040904052
:10204000D8F4ECCFC8010E943D0BF8018783C8018A
:102050000E94CA0EC8010E94730B8F2D0F900F9023
:102060000F90CF91DF911F910F91FF90EF90DF9034
:10207000CF90BF90AF90089598012B5F3F4FC8015C
:10208000BE016E5F7F4FAE014D5F5F4F0E946C0CD3
:10209000FA80F80185818823D1F2D4CF4F925F92E4
:1020A0006F927F928F929F92AF92BF92CF92DF9268
:1020B000EF92FF920F931F93DF93CF9300D000D046
:1020C0000F92CDB7DEB76C018B01E42EF22ECB015F
:1020D0000E947201089710F020E001C029E000D0B2
:1020E00000D000D0EDB7FEB731968EE991E0ADB7E4
:1020F000BEB712969C938E93119713830283822FFF
:10210000992787FD9095958384830E94DC01EDB724
:10211000FEB736960FB6F894FEBF0FBEEDBF2E0188
:102120000894411C511C8AE9682E81E0782E06E053
:10213000802E912C8C0E9D1E15E9A12E11E0B12E42
:102140002FC0C6016E2DA20125E00E94C90F00D04C
:10215000ADB7BEB712967C926E9211970E94DC01C9
:1021600084010F900F9015C000D000D0EDB7FEB7DE
:102170003196ADB7BEB71296BC92AE921197D80108
:102180008C91828313820E94DC010F900F900F903C
:102190000F90015010400C171D0731F7E394FA948B
:1021A000FF2079F600D082E991E0EDB7FEB7928387
:1021B00081830E94DC010F900F900F900F900F9081
:1021C0000F900F90CF91DF911F910F91FF90EF90A3
:1021D000DF90CF90BF90AF909F908F907F906F9047
:1021E0005F904F9008950F931F938C010E945B0B9B
:1021F000682FC8010E94DC0AC80165E871E04AE066
:1022000022E00E944E10C80168E771E04CE024E033
:102210000E94130FC80160E771E040E121E00E94D5
:102220004E10C80165E671E041E126E00E94130FFF
:10223000C8016FE571E041E021E00E94130FC80181
:1022400065E571E042E021E00E94130FC8016FE4F0
:1022500071E045E021E00E94130FC80166E471E0DF
:1022600046E021E00E94130FC8016FE371E040E0F7
:1022700021E00E94130FC80161E371E04CE122E00C
:102280000E94130FC8010E94910DFC01EE0FFF1F69
:10229000EC52FF4F2591349100D000D08FE191E0B6
:1022A000EDB7FEB792838183348323830E94DC01E0
:1022B000F8018381E82FF0E0EE0FFF1FE652FF4F99
:1022C0002591349180E191E0EDB7FEB7928381834F
:1022D000348323830E94DC010F900F900F900F90A6
:1022E000C8010E94640DFC01EE0FFF1FE252FF4F78
:1022F0002591349100D000D08DEF90E0EDB7FEB77E
:1023000092838183348323830E94DC010F900F909A
:102310000F900F90C8010E94D30DFC01EE0FFF1F1C
:10232000EC51FF4F2591349100D000D08CEE90E01D
:10233000EDB7FEB792838183348323830E94DC014F
:102340000F900F900F900F901F910F9108950F9382
:102350001F93CF93DF93BC018230910510F462E0AC
:1023600070E0E091B102F091B202A0E0B0E040E094
:1023700050E024C08081918186179707D0F086179E
:10238000970771F482819381109729F013969C939B
:102390008E9312972CC09093B2028093B10227C003
:1023A0004115510519F08417950718F4EF018D01B7
:1023B000AC01DF01828193819C01F9013097D1F654
:1023C00041155105F9F0CA01861B970B8430910520
:1023D00080F48A819B810115110521F0F801938316
:1023E000828304C09093B2028093B102FE013296C0
:1023F0002FC0FE01E80FF91F619371930297998333
:10240000888326C08DB79EB7885790402091D7010A
:102410003091D80128173907C8F4AC01421B530B7F
:102420004617570798F0CB0102964817590770F0E6
:10243000820F931F9093D8018093D7019093DA0174
:102440008093D901F9016193719302C0E0E0F0E05B
:10245000CF01DF91CF911F910F910895882319F437
:102460008CB5806202C08CB58F7D8CBD08959CB503
:10247000937F982B9CBD08952CB5382F33702C7FFB
:10248000322B3CBD2DB590E0959587959595879518
:1024900081702E7F822B8DBD08958AE061E00E94BD
:1024A000E1078AE061E00E94A2078CB580618CBDE3
:1024B0008CB580648CBD8DE061E00E94A2078BE04A
:1024C00061E00E94A2070895A1E21A2EAA1BBB1B7D
:1024D000FD010DC0AA1FBB1FEE1FFF1FA217B307F0
:1024E000E407F50720F0A21BB30BE40BF50B661F06
:1024F000771F881F991F1A9469F7609570958095CA
:1025000090959B01AC01BD01CF0108952F923F92A0
:102510004F925F926F927F928F929F92AF92BF92F3
:10252000CF92DF92EF92FF920F931F93CF93DF939F
:10253000CDB7DEB7CA1BDB0B0FB6F894DEBF0FBEFC
:10254000CDBF09942A88398848885F846E847D8449
:102550008C849B84AA84B984C884DF80EE80FD804B
:102560000C811B81AA81B981CE0FD11D0FB6F894C1
:10257000DEBF0FBECDBFED010895EE0FFF1F05902A
:0A258000F491E02D0994F894FFCFC8
:10258A004E6F772073656E64696E6720256C752EB1
:10259A002E2E006F6B2E2E2E006661696C65642EDE
:1025AA000A0D004661696C65642C20726573706F50
:1025BA006E73652074696D6564206F75742E0A0DDB
:1025CA0000476F7420726573706F6E736520256C97
:1025DA00752C20726F756E642D7472697020646533
:1025EA006C61793A20256C750A0D00476F7420706A
:1025FA0061796C6F616420256C752E2E2E005365EF
:10260A006E7420726573706F6E73652E0A0D000A00
:10261A000D524632342F6578616D706C65732F7078
:10262A00696E67706169722F0A0D00524F4C453A04
:10263A002025730A0D00696E76616C696400506921
:10264A006E67206F757400506F6E67206261636BEE
:10265A0000B601BE01C701B9026400000000000310
:0C266A000A990A9909CA09AA09F3090093
:00000001FF
